:020000040800F2
:1000000030F80020BD5A0008C1010008C3010008F3
:10001000C5010008C7010008C90100080000000070
:10002000000000000000000000000000CB010008FC
:10003000CD01000800000000CF010008D101000838
:10004000D75A0008D75A0008D75A0008D75A0008CC
:10005000D75A0008D75A0008D75A0008D75A0008BC
:10006000D75A0008D75A0008D75A0008D75A0008AC
:10007000D75A0008D75A0008D75A0008D75A00089C
:10008000D75A0008D75A0008D75A0008D75A00088C
:10009000D75A0008D75A0008D75A0008D75A00087C
:1000A000D75A0008D75A0008D75A0008D75A00086C
:1000B000D75A0008CF550008D75A0008D75A000869
:1000C000D75A0008D75A0008D75A0008D75A00084C
:1000D000D75A00081F5A0008D75A0008D75A0008F4
:1000E000D75A0008D75A0008D75A0008D75A00082C
:1000F000D75A0008D75A0008D75A0008D75A00081C
:10010000D75A0008D75A0008D75A0008D75A00080B
:10011000D75A0008D75A0008D75A0008D75A0008FB
:10012000D75A0008D75A0008D75A0008D75A0008EB
:10013000DFF80CD027F042FC0048004745010008DA
:1001400030F8002005F0CAFB4FF4A06005F0C8FCB1
:100150004FF4165005F017FC00F0B6F800F0DCF88C
:10016000472140F2E73005F005FA05F059FB00F0B1
:1001700052FC012000F086FB104C2068804708F0FC
:1001800052F921F0E4FE21F01CFF21F035FF4FF67B
:10019000FF75002000F0DAF8012808D1284600F0A9
:1001A00008FC04F0C9F803F0DBFF21F025FF6168CB
:1001B0000020884714F036FDEBE700002000002007
:1001C0007047FEE7FEE7FEE7FEE7704770477047BF
:1001D000704700000CB5002136480191009102687B
:1001E00042F4803202604FF4A063026802F40032ED
:1001F0000092019A521C0192009A12B9019A9A42F5
:10020000F3D10268920333D5012100912A490A688B
:1002100042F010020A600A6822F003020A600A68CB
:1002200042F002020A6041684160416841604168F1
:1002300041F480614160416821F47C114160416872
:1002400041F4E8114160016841F08071016001688A
:100250008901FCD5416821F003014160416841F00A
:10026000020141604168C1F381010229FAD10CBD4C
:1002700000910CBD0F4810B5016841F0010101600B
:1002800041680E4A1140416001680D4A1140016009
:10029000016821F480210160416821F4FE01416080
:1002A0004FF41F018160FFF795FF06494FF0006092
:1002B000086010BD00100240002002400000FFF85E
:1002C000FFFFF6FE08ED00E038B50121482005F0FB
:1002D00064FD2024ADF8004010208DF803000320B9
:1002E0000B4D8DF802006946284605F0B1FC20212F
:1002F000284605F005FDADF80040064C694620464D
:1003000005F0A6FC2021204605F0FAFC38BD0000CF
:10031000000C01400018014008B50121442005F0FF
:100320003CFD1C20ADF8000048208DF80300694614
:10033000364805F08DFC0120ADF8000028208DF82E
:1003400003006946324805F083FC08BD2DE9F04101
:10035000304D2F4F2D4C012608B12E7001E028782A
:10036000A0B11021204605F0C4FCB0B10821204600
:1003700005F0BFFC88B10421204605F0BAFC60B14D
:100380000121384605F0B5FC012806D01021204691
:1003900005F0AFFC012824D035E00A2005F0CCFAA6
:1003A000002028701021204605F0A3FC80B1082110
:1003B000204605F09EFC70B10421204605F099FC12
:1003C00058B10121384605F094FC012807D01AE005
:1003D0000120BDE8F0810220FBE70320F9E70420BB
:1003E000F7E70821204605F084FC01280BD1042101
:1003F000204605F07EFC012805D10121384605F094
:1004000078FC00B92E700020E3E7000000180140DE
:10041000000801401400002008B5FA480088ADF833
:100420000000BDF8000008BDF64A921E1080901C26
:1004300001807047F34910B5891E0880052005F03A
:1004400064FABDE81040E7E7EF48EE49891E0089ED
:10045000088070472DE9F04FEB4E0C4601464FEAFD
:10046000102C3046B588DFF89CB38289230ADFF868
:1004700094A34089A5F51347ABF1020B413F1CD073
:10048000A5F5A647103F18D0B64696F806903688D0
:10049000A5F5D047A6EB0108A8F10108043F13D049
:1004A000A5F5C857633F23D0A5F5AA477646103F68
:1004B0004ED0B9F1010F60D061E05D46ABF80000AD
:1004C0005046AAF800C00BE0B9F1010F01D11FFAA4
:1004D00088F15D46ABF800000E0A5046AAF80060AD
:1004E000C9B201802A800380E1B20180BDE8F08FAB
:1004F000B9F1000F1DD0ABF800005046AAF800C0BB
:10050000C9B2AAF80010761E310AAAF80010F1B29A
:100510000180ABF800205046AAF80030E1B2AAF8FA
:100520000010BEF80210491E0A0AAAF80020C9B23B
:10053000DBE71FFA88F1ABF8000000265046AAF866
:100540000060AAF800600E0AAAF80060C9B2DFE7EE
:10055000ABF80000AAF800C0401CABF80000C8B21D
:10056000AAF80000ABF80020AAF80030521CABF843
:100570000020E0B2AAF80000B8E71FFA88F1FFF700
:1005800053FFB0892146BDE8F04F4DE7F0B59E4CD2
:1005900000232146A579898846F6040241F66316B0
:1005A000012D01D02DB11DE091421BD0B14202D1ED
:1005B00018E0B14216D1082814D2DFE800F0040692
:1005C000080A0C0E101206200CE007200AE0042096
:1005D00008E0052006E0012004E0002002E00320FE
:1005E00000E00220A1F5134C45F2103745F21055FA
:1005F000BCF1410C07D0914205D0B94203D0A942C9
:1006000001D0B14276D1082812D2DFE800F01104FF
:1006100006080A0C0E1080230AE0402308E0C023DD
:1006200006E0202304E0602302E0A02300E0E023B2
:10063000A94202D14FF4585000E03620B94205D00B
:10064000A94203D0B14201D043F00803914201D145
:1006500043F002031946FFF7E7FEA088B0420AD034
:1006600099062188628802D5914202D303E0914223
:1006700001D9228061806349891E8A1CA842608951
:10068000088021D100231380431C0B80002313809A
:10069000831C0B8023885B1E1D0A1580C01C0880EC
:1006A000D8B21080A089088000231380431C0B80DF
:1006B00000231380831C0B8063885B1E1C0A14803C
:1006C000C01C0880D8B212E0002010801080208862
:1006D000401E030A1380C0B21080A0890880002049
:1006E000108010806088401E010A1180C0B2108006
:1006F000F0BDFFE7082812D2DFE800F00406081179
:100700000A0C0E1030230AE0102308E0202306E034
:10071000382304E0282302E0182300E00823BDE882
:10072000F040032043F480517EE600B5FFF792FECF
:10073000FFF78AFE354833490088088000BD2DE95F
:10074000F04FDFF8C4800C460146060A4046934647
:10075000B8F80450DFF8ACA08289DFF8A890230A2B
:100760004089A5F51347AAF1020A413F19D0A5F522
:10077000A647103F15D0A5F5AA47103F15D047460C
:10078000A5F5C85CBE793F887F1A7F1EBCF1630C5B
:1007900020D0A5F5D04CBCF1040C39D0012E49D0A5
:1007A00049E05546AAF8000039E0AAF80000A9F887
:1007B0000060401CAAF80000C8B2A9F80000AAF81E
:1007C0000020A9F80030521CAAF80020E0B2A9F8D5
:1007D000000037E006B9B9B2AAF800000D0A484691
:1007E000A9F80050CFB2A9F80070A9F80050C9B21A
:1007F000A9F80010AAF80020A9F80030E1B2A9F881
:10080000001013E00008006CA00A00201600002071
:10081000012E00D1B9B25546AAF800000E0A48468A
:10082000A9F80060C9B2A9F800102A800380E1B2DB
:10083000018007E0B9B2FFF7F7FDB8F80C002146D8
:10084000FFF7F2FDB8F80810AAF80010A9F800B0F8
:100850004CE6FF4A10B5BE211180941C0521218071
:1008600026F000FF4FF06632FA4B26F07BFE26F0B2
:1008700033FF208001202080FF2020800020208066
:10088000208010BD2DE9F04FF3492A242B258988BB
:1008900045F2105A4FF4305B4FF4285E4FF448761F
:1008A0004FF0F00C49F241394FF4A07345F2103784
:1008B0004FF4F07280B1E8484FF00108494580F8E4
:1008C00006800380A0F802C001D0B9423ED12C2698
:1008D00006814481858157E0DF484FF00008494593
:1008E00080F80680A0F800C0438006D0A1F5D04C67
:1008F000BCF1040C01D0B9420CD12C2606814481F4
:10090000A1F5D0448581043C01D0B94244D1038093
:10091000428041E0514507D1A0F808B0A0F80AE0B4
:100920004FF42C5181810EE0A1F5C853633B06D0F2
:100930002221018120214181212181812CE02C2152
:100940000181458184810280468025E0A1F5D04C5B
:10095000BCF1040C09D051450BD1A0F808B0A0F8A7
:100960000AE04FF42C54848120E02C260681458136
:1009700009E0A1F5C85CBCF1630C11D0222404810C
:100980002124448120248481A1F5D044043C01D059
:10099000B94201D102804380BDE8F04F0020F5E567
:1009A0004FF02C0CA0F808C044818581068042805D
:1009B000EAE72DE9F043A84C8146002520886688A7
:1009C0004643A088A0F5D041043902D1A07901287E
:1009D00009D000210846FFF73DFD00BFFFF734FDB9
:1009E0009B48801C13E00020A0712A2767814FF0EC
:1009F0002B08A4F80C800146FFF72CFD0120A07104
:100A0000A4F80A80A781E9E7A0F800906D1CB54220
:100A1000FAD3BDE8F0832DE9F04F01210E02A1B019
:100A2000304605F0B1F901214FF4B47005F0B5F985
:100A30000127ADF840704FF010088DF84380032473
:100A40008DF8424010A9854805F002F94CF2337048
:100A5000ADF8400018258DF843508DF8424010A99C
:100A60007F4805F0F5F84FF68070ADF840008DF83E
:100A700043508DF8424010A97A4805F0E9F841F258
:100A80000100ADF840008DF843508DF8424010A9A8
:100A9000754805F0DDF800200F21CDE9120111970E
:100AA00014901590169017901890CDE9190406210E
:100AB0001E901B901C90CDE90010CDE902081D90FE
:100AC00004903101CDE90801069005900790890056
:100AD000CDE90A010C9011A80D9018A80E90684657
:100AE00005F042F80121062005F0A2F8322004F0BA
:100AF00023FF0020FFF79EFC574D554C49F241392A
:100B0000A88046F6040A45F2103B45F210574FF60E
:100B1000FF78FF2804D3404502D0B0F5134F70D1C1
:100B2000D3202080FFF778FCA880FFF775FCA88011
:100B3000FFF772FC08EA00204146A880FFF76CFC32
:100B4000AA881043A88048455BD0BF202080FFF7CB
:100B500063FCA880FFF760FCA880FFF75DFCA8801D
:100B6000FFF75AFC01EA0020A880FFF755FCAA888D
:100B70001043A880504544D0D4202080FFF74CFC7F
:100B8000A880FFF749FCA880FFF746FC01EA002097
:100B9000A880FFF741FCAA881043A880584530D0B0
:100BA0004FF45A402080FFF737FCA8804FF45B4099
:100BB0002080FFF731FC01EA0020A8804FF45C4060
:100BC0002080FFF729FCAA881043A880B0F5004FC9
:100BD0007ED0B84215D0A1202080FFF71DFCA88050
:100BE000FFF71AFC01EA0020A880FFF715FCA9888E
:100BF0000843A0F5AE41A880613902D141F66310E7
:100C0000A880A98819A026F017FFA888104DAD1C50
:100C100048457DD1CF20208000202880C120288019
:100C200030202880ED202080642028800320288028
:100C30001220288081202880E8202080852028809C
:100C4000102028807A202880CB202080392015E0B1
:100C5000FE07006C66660440A00A0020000C0140FC
:100C6000001401400018014000200140204C434482
:100C70002049443A25780D0A0000000028802C20E5
:100C80002880002028803420288002202880F72017
:100C9000208020202880EA202080002028802880B2
:100CA000C02020801B202880C12020800120288097
:100CB000C5202080302028802880C7202080B720B1
:100CC000288036202080482028803A20208000E09C
:100CD00067E055202880B1202080002028801A203D
:100CE0002880B62020800A202880A2202880F22098
:100CF0002080002028802620208001202880E020DD
:100D000020800F2028802A2028802820288000E0AA
:100D100049E0082028800E202880082028805420C0
:100D20002880A9202880432028800A2028800F209E
:100D3000288000202880288028802880E1202080AA
:100D40000020288015202880172028800720288050
:100D500011202880062028802B20288056202880DB
:100D60003C20288005202880102028800F20288003
:100D70003F20288028800F2028802B2020800020E2
:100D800028802880012028803F2028802A20208059
:100D90000020288028802880EF20288011202080B3
:100DA0006EE0AF802DE7504571D1112020801420D6
:100DB00004F0C2FDD0202080072028804220288017
:100DC0001D202880D1202080002028801A20288003
:100DD00009202880D22020800120288022202880FD
:100DE000C0202080102028803B20288000202880E0
:100DF0000220288011202880C52020800320288000
:100E0000C8202080002028802520288021202880BC
:100E100005202880002028800A202880652028803E
:100E20002520288077202880502028800F202880A7
:100E300000202880F820208001202880FE202080AB
:100E4000002028800220288020202080362020803A
:100E5000082028803A202080552028802B202080C0
:100E6000002028802880012028803F2028802A20F8
:100E7000208000202880288001202880DF202880F2
:100E8000782004F059FD292001F02EBCFFE75845D9
:100E90007ED1ED20208001202880FE202880EE20B9
:100EA0002080DE20288021202880F1202080012041
:100EB0002880DF20208010202880C42020808F20E0
:100EC0002880C620208000202880E22028802880DA
:100ED0002880BF202080AA202880B02020800D20DC
:100EE0002880002028800D202880002028801120C4
:100EF0002880002028801920288000202880212098
:100F00002880002028802D202880002028803D2057
:100F10002880002028805D202880002028805D20F7
:100F2000288000202880B120208080202880002078
:100F300028808B2028800020288096202880002070
:100F40002880B2202080002028802880022028804D
:100F5000002028800320288000202880B3202080C3
:100F600000202880288028802880288028802880C9
:100F70002880288028802880288028802880288031
:100F8000288028802880288028802880288000E0E9
:100F9000FEE328802880B42020808B202880002039
:100FA00028809620288000202880A12028800020EA
:100FB0002880B5202080022028800020288003205F
:100FC0002880002028800420288000202880B62047
:100FD0002080002028802880B720208000202880C2
:100FE00028803F202880002028805E202880002044
:100FF000288064202880002028808C2028800020E1
:101000002880AC20288000202880DC202880002038
:1010100028807020288000202880902028800020B0
:101020002880EB20288000202880DC2028800020D9
:101030002880B820208000202880288028802880D0
:101040002880288028802880BA202080242028809A
:101050000020288028802880C1202080202028800F
:10106000002028805420288000202880FF2028800D
:1010700000202880C22020800A202880002028808C
:101080000420288000202880C32020803C20288045
:10109000002028803A2028800020288039202880BD
:1010A0000020288037202880002028803C202880AD
:1010B00000202880362028800020288032202880A8
:1010C000002028802F202880002028802C202880A5
:1010D00000202880292028800020288026202880A1
:1010E0000020288024202880002028802420288098
:1010F0000020288023202880002028803C20288071
:101100000020288036202880002028803220288057
:10111000002028802F202880002028802C20288054
:101120000020288029202880002028802620288050
:101130000020288024202880002028802420288047
:10114000002028802320288000202880C4202080A0
:101150006220288000202880052028800020288008
:101160008420288000202880F020288000202880EB
:101170001820288000202880A42028800020288093
:1011800018202880002028805020288000202880D7
:101190000C2028800020288017202880002028800C
:1011A0009520288000202880F32028800020288097
:1011B000E620288000202880C5202080322028803A
:1011C0000020288044202880002028806520288056
:1011D00000202880762028800020288088202880F1
:1011E00000202880C6202080202028800020288001
:1011F00017202880002028800120288000202880B7
:10120000C720208000202880288028802880C820AF
:10121000208000202880288028802880C9202080E5
:101220000020288028802880288028802880288006
:10123000288028802880288028802880288028806E
:101240002880E020208016202880002028801C2074
:101250002880002028802120288000202880362017
:1012600028800020288046202880002028805220C6
:1012700028800020288064202880002028807A2070
:101280002880002028808B2028800020288099201A
:10129000288000202880A820288000202880B920CD
:1012A000288000202880C420288000202880CA2090
:1012B000288000202880D220288000202880D92063
:1012C000288000202880E020288000202880F3202B
:1012D000288000202880E1202080162028800020FF
:1012E00028801C20288000202880222028800020A0
:1012F0002880362028800020288045202880002053
:101300002880522028800020288064202880002007
:1013100028807A202880002028808B2028800020A8
:1013200028809920288000202880A820288000205C
:101330002880B920288000202880C4202880002010
:101340002880CA20288000202880D22028800020E1
:101350002880D820288000202880E02028800020B5
:101360002880F320288000202880E220208005208B
:101370002880002028800B202880002028801B2027
:1013800028800020288034202880002028804420C5
:101390002880002028804F2028800020288061207D
:1013A000288000202880792028800020288088201C
:1013B0002880002028809720288000202880A620D0
:1013C000288000202880B720288000202880C22084
:1013D000288000202880C720288000202880D12055
:1013E000288000202880D620288000202880DD202A
:1013F000288000202880F320288000202880E320F7
:10140000208005202880002028800A2028800020B5
:1014100028801C202880002028803320288000205D
:101420002880442028800020288050202880002008
:1014300028806220288000202880782028800020B2
:10144000288088202880002028809720288000205D
:101450002880A620288000202880B720288000200F
:101460002880C220288000202880C72028800020D3
:101470002880D120288000202880D52028800020A6
:101480002880DD20288000202880F320288000206C
:101490002880E4202080012028800020288001204E
:1014A00028800020288002202880002028802A20F0
:1014B0002880002028803C202880002028804B2085
:1014C0002880002028805D2028800020288074202B
:1014D00028800020288084202880002028809320D5
:1014E000288000202880A220288000202880B32087
:1014F000288000202880BE20288000202880C4204A
:10150000288000202880CD20288000202880D3201B
:10151000288000202880DD20288000202880F320DB
:10152000288000202880E520208000202880288036
:1015300028802880022028800020288029202880D8
:10154000002028803C202880002028804B202880F4
:10155000002028805D20288000202880742028809A
:101560000020288084202880002028809320288044
:1015700000202880A220288000202880B3202880F6
:1015800000202880BE20288000202880C4202880B9
:1015900000202880CD20288000202880D32028808B
:1015A00000202880DC20288000202880F32028804C
:1015B00000202880E620208011202880002028801C
:1015C0003420288000202880562028800020288071
:1015D00076202880002028807720288000202880FE
:1015E00066202880002028808820288000202880ED
:1015F0009920288000202880BB2028800020288077
:1016000099202880002028806620288000202880BB
:101610005520288000202880552028800020288000
:101620004520288000202880432028800020288012
:101630004420288000202880E72020803220288035
:1016400000202880552028800020288076202880AF
:10165000002028806620288000202880672028809D
:10166000002028806720288000202880872028806C
:10167000002028809920288000202880BB202880F6
:10168000002028809920288000202880772028802A
:101690000020288044202880002028805620288090
:1016A00000202880232028800020288033202880C4
:1016B000002028804520288000202880E8202080E5
:1016C00000202880288099202880002028808720DA
:1016D00028800020288088202880002028807720EB
:1016E00028800020288066202880002028808820EC
:1016F000288000202880AA20288000202880BB2065
:1017000028800020288099202880002028806620BA
:1017100028800020288055202880002028805520FF
:101720002880002028804420288000202880442011
:101730002880002028805520288000202880E9204B
:101740002080AA20288000202880288028802080CF
:10175000AA202880CF202080002028802880288070
:101760002880288028802880288028802880288039
:10177000288028802880288028802880F0202080C9
:10178000002028805020288000202880288000E029
:101790002BE02880F320208000202880F920208062
:1017A00006202880102028802920288000202880DA
:1017B0003A2020805520288011202080642004F0C9
:1017C000BBF829202080352020800020288051204F
:1017D0002080FF202880532020802C202880552026
:1017E0002080822028802C20FDE3B8427ED14FF457
:1017F000704355211846FEF717FE4FF20105AA2146
:101800002846FEF711FE6E1C52213046FEF70CFEF4
:10181000AF1C08213846FEF707FE4FF2040C0121E9
:101820006046FEF701FE0D214FF43040FEF7FCFD4F
:101830000D214BF20100FEF7F7FD0D214BF20200E6
:10184000FEF7F2FD4FF4364934214846FEF7ECFD31
:1018500034214BF20160FEF7E7FD34214BF20260C8
:10186000FEF7E2FD4FF4314A0D215046FEF7DCFD54
:101870004BF2011B0D215846FEF7D6FD0D214BF210
:101880000210FEF7D1FD34214FF43740FEF7CCFDB6
:1018900034214BF20170FEF7C7FD34214BF2027088
:1018A000FEF7C2FD00214FF43240FEF7BDFD0021DE
:1018B0004BF20120FEF7B8FD00214BF20220FEF7AB
:1018C000B3FD24214FF43840FEF7AEFD24214BF642
:1018D0000100FEF7A9FD24214BF60200FEF7A4FD4E
:1018E00001214FF43F40FEF79FFD00E0FEE30F2192
:1018F0004FF43340FEF798FD0F214BF20130FEF715
:1019000093FD0F214BF20230FEF78EFD34214FF490
:101910003940FEF789FD34214BF60110FEF784FDB6
:1019200034214BF60210FEF77FFD08214FF43540BD
:10193000FEF77AFD08214BF20150FEF775FD0821F4
:101940004BF20250FEF770FD03214FF44240FEF7C8
:101950006BFD24214FF43A40FEF766FD24214BF63F
:101960000120FEF761FD24214BF60220FEF75CFD0D
:1019700000214FF43C40FEF757FD78214BF6014023
:10198000FEF752FD00214BF60240FEF74DFD00210F
:101990004FF43D40FEF748FD78214BF60150FEF72D
:1019A00043FD00214BF60250FEF73EFD00214FF4AF
:1019B0003E40FEF739FD64214BF60160FEF734FD31
:1019C00000214FF45140FEF72FFD33214DF201105D
:1019D000FEF72AFD00214DF20210FEF725FD34210D
:1019E0004DF20310FEF720FD00214DF20410FEF72A
:1019F0001BFD3A214DF20510FEF716FD00214DF2B8
:101A00000610FEF711FD4A214DF20710FEF70CFDFE
:101A100000214DF20810FEF707FD5C214DF2091080
:101A2000FEF702FD00214DF20A10FEF7FDFC8121B8
:101A30004DF20B10FEF7F8FC00214DF20C10FEF7F2
:101A4000F3FCA6214DF20D10FEF7EEFC00214DF245
:101A50000E10FEF7E9FCE5214DF20F10FEF7E4FC55
:101A600001214DF21010FEF7DFFC13214DF2111091
:101A7000FEF7DAFC01214DF21210FEF7D5FC5421DD
:101A80004DF21310FEF7D0FC01214DF21410FEF7B9
:101A9000CBFC82214DF21510FEF7C6FC01214DF260
:101AA0001610FEF7C1FCCA214DF21710FEF7BCFC60
:101AB00002214DF21810FEF7B7FC00214DF219106B
:101AC000FEF7B2FC02214DF21A10FEF7ADFC012127
:101AD0004DF21B10FEF7A8FC02214DF21C10FEF780
:101AE000A3FC34214DF21D10FEF79EFC02214DF2A5
:101AF0001E10FEF799FC67214DF21F10FEF794FCB3
:101B000002214DF22010FEF78FFC84214DF22110AE
:101B1000FEF78AFC02214DF22210FEF785FCA4217B
:101B20004DF22310FEF780FC02214DF22410FEF747
:101B30007BFCB7214DF22510FEF776FC02214DF219
:101B40002610FEF771FCCF214DF22710FEF76CFC3A
:101B500002214DF22810FEF767FCDE214DF229101C
:101B6000FEF762FC02214DF22A10FEF75DFCF22125
:101B70004DF22B10FEF758FC02214DF22C10FEF70F
:101B800053FCFE214DF22D10FEF74EFC03214DF2C9
:101B90002E10FEF749FC10214DF22F10FEF744FCE9
:101BA00003214DF23010FEF73FFC33214DF231108E
:101BB000FEF73AFC03214DF23210FEF735FC6D21A1
:101BC0004DF23310FEF730FC00214FF45240FEF787
:101BD0002BFC33214DF20120FEF726FC00214DF2B3
:101BE0000220FEF721FC34214DF20320FEF71CFCFD
:101BF00000214DF20420FEF717FC3A214DF205209A
:101C0000FEF712FC00214DF20620FEF70DFC4A21E2
:101C10004DF20720FEF708FC00214DF20820FEF7E8
:101C200003FC5C214DF20920FEF7FEFB00214DF282
:101C30000A20FEF7F9FB81214DF20B20FEF7F4FBA1
:101C400000214DF20C20FEF7EFFBA6214DF20D20F6
:101C5000FEF7EAFB00214DF20E20FEF7E5FBE52141
:101C60004DF20F20FEF7E0FB01214DF21020FEF7B0
:101C7000DBFB13214DF21120FEF7D6FB01214DF2C3
:101C80001220FEF7D1FB54214DF21320FEF7CCFBBE
:101C900001214DF21420FEF7C7FB82214DF21520E1
:101CA000FEF7C2FB01214DF21620FEF7BDFBCA2153
:101CB0004DF21720FEF7B8FB02214DF21820FEF777
:101CC000B3FB00214DF21920FEF7AEFB02214DF2CD
:101CD0001A20FEF7A9FB01214DF21B20FEF7A4FB01
:101CE00002214DF21C20FEF79FFB34214DF21D20F6
:101CF000FEF79AFB02214DF21E20FEF795FB6721AD
:101D00004DF21F20FEF790FB02214DF22020FEF73E
:101D10008BFB84214DF22120FEF786FB02214DF240
:101D20002220FEF781FBA4214DF22320FEF77CFB4D
:101D300002214DF22420FEF777FBB7214DF225203A
:101D4000FEF772FB02214DF22620FEF76DFBCF213C
:101D50004DF22720FEF768FB02214DF22820FEF706
:101D600063FBDE214DF22920FEF75EFB02214DF2DE
:101D70002A20FEF759FBF2214DF22B20FEF754FBEF
:101D800002214DF22C20FEF74FFBFE214DF22D20BB
:101D9000FEF74AFB03214DF22E20FEF745FB1021F2
:101DA0004DF22F20FEF740FB03214DF23020FEF7CD
:101DB0003BFB33214DF23120FEF736FB03214DF280
:101DC0003220FEF731FB6D214DF23320FEF72CFB64
:101DD00000214FF45340FEF727FB33214DF2013031
:101DE000FEF722FB00214DF20230FEF71DFB3421ED
:101DF0004DF20330FEF718FB00214DF20430FEF7E0
:101E000013FB3A214DF20530FEF70EFB00214DF297
:101E10000630FEF709FB4A214DF20730FEF704FBBE
:101E200000214DF20830FEF7FFFA5C214DF2093037
:101E3000FEF7FAFA00214DF20A30FEF7F5FA812199
:101E40004DF20B30FEF7F0FA00214DF20C30FEF7A8
:101E5000EBFAA6214DF20D30FEF7E6FA00214DF225
:101E60000E30FEF7E1FAE5214DF20F30FEF7DCFA15
:101E700001214DF21030FEF7D7FA13214DF2113047
:101E8000FEF7D2FA01214DF21230FEF7CDFA5421BD
:101E90004DF21330FEF7C8FA01214DF21430FEF76F
:101EA000C3FA82214DF21530FEF7BEFA01214DF240
:101EB0001630FEF7B9FACA214DF21730FEF7B4FA20
:101EC00002214DF21830FEF7AFFA00214DF2193021
:101ED000FEF7AAFA02214DF21A30FEF7A5FA012107
:101EE0004DF21B30FEF7A0FA02214DF21C30FEF736
:101EF0009BFA34214DF21D30FEF796FA02214DF285
:101F00001E30FEF791FA67214DF21F30FEF78CFA72
:101F100002214DF22030FEF787FA84214DF2213064
:101F2000FEF782FA02214DF22230FEF77DFAA4215B
:101F30004DF22330FEF778FA02214DF22430FEF7FD
:101F400073FAB7214DF22530FEF76EFA02214DF2F9
:101F50002630FEF769FACF214DF22730FEF764FAFA
:101F600002214DF22830FEF75FFADE214DF22930D2
:101F7000FEF75AFA02214DF22A30FEF755FAF22105
:101F80004DF22B30FEF750FA02214DF22C30FEF7C5
:101F90004BFAFE214DF22D30FEF746FA03214DF2A9
:101FA0002E30FEF741FA10214DF22F30FEF73CFAA9
:101FB00003214DF23030FEF737FA33214DF2313044
:101FC000FEF732FA03214DF23230FEF72DFA6D2181
:101FD0004DF23330FEF728FA00214FF45440FEF75B
:101FE00023FA332100E07FE34DF20140FEF71CFAB3
:101FF00000214DF20240FEF717FA34214DF2034062
:10200000FEF712FA00214DF20440FEF70DFA3A21D4
:102010004DF20540FEF708FA00214DF20640FEF7AA
:1020200003FA4A214DF20740FEF7FEF900214DF276
:102030000840FEF7F9F95C214DF20940FEF7F4F98A
:1020400000214DF20A40FEF7EFF981214DF20B40DD
:10205000FEF7EAF900214DF20C40FEF7E5F9A62162
:102060004DF20D40FEF7E0F900214DF20E40FEF773
:10207000DBF9E5214DF20F40FEF7D6F901214DF2D3
:102080001040FEF7D1F913214DF21140FEF7CCF9C3
:1020900001214DF21240FEF7C7F954214DF21340D1
:1020A000FEF7C2F901214DF21440FEF7BDF982217D
:1020B0004DF21540FEF7B8F901214DF21640FEF73A
:1020C000B3F9CA214DF21740FEF7AEF902214DF2E5
:1020D0001840FEF7A9F900214DF21940FEF7A4F9C6
:1020E00002214DF21A40FEF79FF900E0FEE20121C5
:1020F0004DF21B40FEF798F902214DF21C40FEF70D
:1021000093F934214DF21D40FEF78EF902214DF274
:102110001E40FEF789F967214DF21F40FEF784F952
:1021200002214DF22040FEF77FF984214DF221403B
:10213000FEF77AF902214DF22240FEF775F9A4214B
:102140004DF22340FEF770F902214DF22440FEF7D4
:102150006BF9B7214DF22540FEF766F902214DF2E9
:102160002640FEF761F9CF214DF22740FEF75CF9DA
:1021700002214DF22840FEF757F9DE214DF22940A9
:10218000FEF752F902214DF22A40FEF74DF9F221F5
:102190004DF22B40FEF748F902214DF22C40FEF79C
:1021A00043F9FE214DF22D40FEF73EF903214DF299
:1021B0002E40FEF739F910214DF22F40FEF734F989
:1021C00003214DF23040FEF72FF933214DF231401B
:1021D000FEF72AF903214DF23240FEF725F96D2171
:1021E0004DF23340FEF720F900214FF45540FEF741
:1021F0001BF933214DF20150FEF716F900214DF283
:102200000250FEF711F934214DF20350FEF70CF99C
:1022100000214DF20450FEF707F93A214DF2055026
:10222000FEF702F900214DF20650FEF7FDF84A21B3
:102230004DF20750FEF7F8F800214DF20850FEF776
:10224000F3F85C214DF20950FEF7EEF800214DF253
:102250000A50FEF7E9F881214DF20B50FEF7E4F841
:1022600000214DF20C50FEF7DFF8A6214DF20D5083
:10227000FEF7DAF800214DF20E50FEF7D5F8E52111
:102280004DF20F50FEF7D0F801214DF21050FEF73D
:10229000CBF813214DF21150FEF7C6F801214DF293
:1022A0001250FEF7C1F854214DF21350FEF7BCF85E
:1022B00001214DF21450FEF7B7F882214DF215506E
:1022C000FEF7B2F801214DF21650FEF7ADF8CA2123
:1022D0004DF21750FEF7A8F802214DF21850FEF704
:1022E000A3F800214DF21950FEF79EF802214DF29D
:1022F0001A50FEF799F801214DF21B50FEF794F8A1
:1023000002214DF21C50FEF78FF834214DF21D5082
:10231000FEF78AF802214DF21E50FEF785F867217C
:102320004DF21F50FEF780F802214DF22050FEF7CB
:102330007BF884214DF22150FEF776F802214DF210
:102340002250FEF771F8A4214DF22350FEF76CF8ED
:1023500002214DF22450FEF767F8B7214DF22550C7
:10236000FEF762F802214DF22650FEF75DF8CF210C
:102370004DF22750FEF758F802214DF22850FEF793
:1023800053F8DE214DF22950FEF74EF802214DF2AE
:102390002A50FEF749F8F2214DF22B50FEF744F88F
:1023A00002214DF22C50FEF73FF8FE214DF22D5048
:1023B000FEF73AF803214DF22E50FEF735F81021C2
:1023C0004DF22F50FEF730F803214DF23050FEF75A
:1023D0002BF833214DF23150FEF726F803214DF250
:1023E0003250FEF721F86D214DF23350FEF71CF804
:1023F00000214FF45640FEF717F833214DF20160EB
:10240000FEF712F800214DF20260FEF70DF83421BC
:102410004DF20360FEF708F800214DF20460FEF76C
:1024200003F83A214DF20560FDF7FEFF00214DF261
:102430000660FDF7F9FF4A214DF20760FDF7F4FF52
:1024400000214DF20860FDF7EFFF5C214DF20960BD
:10245000FDF7EAFF00214DF20A60FDF7E5FF81215B
:102460004DF20B60FDF7E0FF00214DF20C60FDF72F
:10247000DBFFA6214DF20D60FDF7D6FF00214DF2E6
:102480000E60FDF7D1FFE5214DF20F60FDF7CCFFA7
:1024900001214DF21060FDF7C7FF13214DF21160CD
:1024A000FDF7C2FF01214DF21260FDF7BDFF54217F
:1024B0004DF21360FDF7B8FF01214DF21460FDF7F6
:1024C000B3FF82214DF21560FDF7AEFF01214DF201
:1024D0001660FDF7A9FFCA214DF21760FDF7A4FFB2
:1024E00002214DF21860FDF79FFF00214DF21960A7
:1024F000FDF79AFF02214DF21A60FDF795FF0121C9
:102500004DF21B60FDF790FF02214DF21C60FDF7BC
:102510008BFF34214DF21D60FDF786FF02214DF245
:102520001E60FDF781FF67214DF21F60FDF77CFF04
:1025300002214DF22060FDF777FF84214DF22160EA
:10254000FDF772FF02214DF22260FDF76DFFA4211D
:102550004DF22360FDF768FF02214DF22460FDF784
:1025600063FFB7214DF22560FDF75EFF02214DF2BA
:102570002660FDF759FFCF214DF22760FDF754FF8C
:1025800002214DF22860FDF74FFFDE214DF2296058
:10259000FDF74AFF02214DF22A60FDF745FFF221C7
:1025A0004DF22B60FDF740FF02214DF22C60FDF74C
:1025B0003BFFFE214DF22D60FDF736FF03214DF26A
:1025C0002E60FDF731FF10214DF22F60FDF72CFF3B
:1025D00003214DF23060FDF727FF33214DF23160CA
:1025E000FDF722FF03214DF23260FDF71DFF6D2143
:1025F0004DF23360FDF718FF55211846FDF714FF23
:10260000AA212846FDF710FF52213046FDF70CFFA6
:1026100008213846FDF708FF00216046FDF704FF5A
:10262000CC215046FDF700FF00215846FDF7FCFE87
:1026300005214846FDF7F8FE70214FF43740FDF7BD
:10264000F3FE70214BF20170FDF7EEFE01214FF415
:102650003840FDF7E9FE03214BF60100FDF7E4FEEB
:1026600003214BF60200FDF7DFFE03214BF60300CA
:10267000FDF7DAFE02214FF43C40FDF7D5FE0021C4
:102680004BF60140FDF7D0FE00214BF60240FDF76E
:10269000CBFED0214FF44940FDF7C6FE02214CF697
:1026A0000110FDF7C1FE50214CF60210FDF7BCFEF3
:1026B00050214CF60310FDF7B7FE50214CF60410E4
:1026C000FDF7B2FE00214FF45450FDF7ADFE552149
:1026D0004FF46850FDF7A8FE4FF488502080782012
:1026E00003F013F94FF424502080FDE3A0F51341CB
:1026F0004FF4E06940F2022A4FF4274B25392ED0DF
:10270000A0F5134140F2077728397CD0A0F513419A
:102710004FF4887B203977D0A0F51341313974D03C
:10272000A0F5A841083971D0A0F5A8514FF4407B1D
:1027300005396CD0A0F53541053969D0A0F5454182
:10274000053966D0A0F58A4131397DD0A0F58A419E
:1027500035397AD0A0F5C851633977D0C5E747F647
:10276000F001E520FDF760FE31460120FDF75CFE3B
:1027700049460220FDF758FE41F230010320FDF7E3
:1027800053FE00210420FDF74FFE51460820FDF7BF
:102790004BFE00210920FDF747FE00210A20FDF72E
:1027A00043FE00210C20FDF73FFE00210D20FDF728
:1027B0003BFE00210F20FDF737FE00211020FDF722
:1027C00033FE07211120FDF72FFE00211220FDF717
:1027D0002BFE00211320FDF727FE00210720FDF727
:1027E00023FE41F290611020FDF71EFE40F22721EA
:1027F0001120FDF719FE9D211220FDF715FE4FF463
:10280000C851132006E082E03EE1E3E1B9E255E37E
:10281000FDE3FDE3FDF708FE25212920FDF704FE79
:102820000D212B20FDF700FE07213020FDF7FCFDD8
:1028300040F203313120FDF7F7FD03213220FDF78F
:10284000F3FD40F2062102E0FEE3FEE3FEE3352065
:10285000FDF7EAFD08213620FDF7E6FD40F20641CE
:102860003720FDF7E1FD4FF441713820FDF7DCFD25
:1028700007213920FDF7D8FD40F202613C20FDF729
:10288000D3FD08213D20FDF7CFFD00215020FDF7AD
:10289000CBFDEF215120FDF7C7FD00215220FDF7B0
:1028A000C3FD40F23F115320FDF7BEFD59466020A5
:1028B000FDF7BAFD01216120FDF7B6FD00216A2078
:1028C000FDF7B2FD00218020FDF7AEFD0021812043
:1028D000FDF7AAFD00218220FDF7A6FD002183203F
:1028E000FDF7A2FD00218420FDF79EFD002185203B
:1028F000FDF79AFD10219020FDF796FD4FF4C06181
:102900009220FDF791FD40F233110720FEE341F2E2
:102910008F01EC20FDF788FD41F23421EF20FDF717
:1029200083FD31460120FDF77FFD49460220FDF77A
:102930007BFD41F230010320FDF776FD00210420EC
:10294000FDF772FD51460820FDF76EFD00210920BC
:10295000FDF76AFD00210A20FDF766FD01210C202C
:10296000FDF762FD00210D20FDF75EFD00210F2027
:10297000FDF75AFD00211020FDF756FD072111201B
:10298000FDF752FD00211220FDF74EFD002113201E
:10299000FDF74AFD01210720FDF746FD322002F038
:1029A000CBFF41F290411020FDF73EFD40F2272180
:1029B0001120FDF739FD322002F0BEFF8A211220DE
:1029C000FDF732FD322002F0B7FF4FF4D051132053
:1029D000FDF72AFD06212920FDF726FD0D212B20DC
:1029E000FDF722FD322002F0A7FF00212020FDF795
:1029F0001BFD00212120FDF717FD322002F09CFF76
:102A000000213020FDF710FD40F204613120FDF778
:102A10000BFD40F205313220FDF706FD0021352087
:102A2000FDF702FD40F609413620FDF7FDFC4FF4AD
:102A300001713720FDF7F8FC40F201313820FDF735
:102A4000F3FC39463920FDF7EFFC00213C20FDF76F
:102A5000EBFC40F60A213D20FDF7E6FC322002F0B7
:102A60006BFF00215020FDF7DFFCEF215120FDF727
:102A7000DBFC00215220FDF7D7FC40F23F11532030
:102A8000FDF7D2FC594651E100210846FDF7CCFC88
:102A900031460120FDF7C8FC49460220FDF7C4FC81
:102AA00041F230010320FDF7BFFC00210420FDF7B7
:102AB000BBFC51460820FDF7B7FC00210920FDF7BB
:102AC000B3FC00210A20FDF7AFFC01210C20FDF72B
:102AD000ABFC00210D20FDF7A7FC00210F20FDF726
:102AE000A3FC322002F028FF40F201110720FDF77D
:102AF0009BFC322002F020FF4FF486511020FDF79E
:102B000093FC07211120FDF78FFC5B4659461220EC
:102B1000FDF78AFC4FF430611320FDF785FC00219E
:102B20002920FDF781FC44F210012B20FDF77CFCED
:102B300000215020FDF778FCEF215120FDF774FCB7
:102B400000215220FDF770FC40F23F115320FDF7A9
:102B50006BFC4FF41C516020FDF766FC01216120E5
:102B6000FDF762FC00216A20FDF75EFC0021802059
:102B7000FDF75AFC00218120FDF756FC0021822040
:102B8000FDF752FC00218320FDF74EFC002184203C
:102B9000FDF74AFC00218520FDF746FC102190201E
:102BA000FDF742FC00219220FDF73EFC012193201D
:102BB000FDF73AFC19469520FDF736FC00219720D9
:102BC000FDF732FC00219820FDF72EFC40F2731136
:102BD000072086E341F21401E720FDF725FC31468A
:102BE0000120FDF721FC4FF400710220FDF71CFCD1
:102BF00041F238010320FDF717FC51460820FDF78C
:102C000013FC00210920FDF70FFC00210A20FDF72D
:102C10000BFC00210C20FDF707FC00210D20FDF727
:102C200003FC00210F20FDF7FFFB00211020FDF722
:102C3000FBFB07211120FDF7F7FB00211220FDF718
:102C4000F3FB00211320FDF7EFFBC82002F074FE18
:102C500041F290611020FDF7E7FB40F2272111209F
:102C6000FDF7E2FB322002F067FE0C211220FDF797
:102C7000DBFB322002F060FE4FF400611320FDF711
:102C8000D3FB11212920FDF7CFFB0B212B20FDF7D2
:102C9000CBFB322002F050FE00212020FDF7C4FBC8
:102CA00040F23F1319462120FDF7BEFB00213020E2
:102CB000FDF7BAFB4FF4837421463120FDF7B4FBD6
:102CC00000213220FDF7B0FB4FF401713520FDF7F4
:102CD000ABFB41F20A613620FDF7A6FB39463720EF
:102CE000FDF7A2FB21463820FDF79EFB394639202F
:102CF000FDF79AFB40F202413C20FDF795FB40F6C0
:102D00000F413D20FDF790FB00215020FDF78CFB8B
:102D1000EF215120FDF788FB00215220FDF784FBB5
:102D200019465320FDF780FB4FF41C516020FDF73E
:102D30007BFB01216120FDF777FB00216A20FDF775
:102D400073FB00218020FDF76FFB00218120FDF740
:102D50006BFB00218220FDF767FB00218320FDF73C
:102D600063FB00218420FDF75FFB00218520FDF738
:102D70005BFB10219020FDF757FB4FF4C0619220C0
:102D8000FEE331460120FDF74FFB49460220FDF7E7
:102D90004BFB41F230010320FDF746FB00210420EC
:102DA000FDF742FB40F207210820FDF73DFB002123
:102DB0000920FDF739FB00210A20FDF735FB002132
:102DC0000C20FDF731FB00210D20FDF72DFB00212C
:102DD0000F20FDF729FB142002F0AEFD41F2B06197
:102DE0001020FDF721FB01211120FDF71DFB012122
:102DF0001720FDF719FB4FF49C711220FDF714FB0F
:102E00004FF400611320FDF70FFB09212920FDF786
:102E10000BFB09212A20FDF707FB0021A420FDF769
:102E200003FB00215020FDF7FFFAEF215120FDF7B1
:102E3000FBFA00215220FDF7F7FA40F23F11532030
:102E4000FDF7F2FA4FF41C516020FDF7EDFA012175
:102E50006120FDF7E9FA00216A20FDF7E5FA00217B
:102E60008020FDF7E1FA00218120FDF7DDFA002145
:102E70008220FDF7D9FA00218320FDF7D5FA002141
:102E80008420FDF7D1FA00218520FDF7CDFA13212A
:102E90009020FDF7C9FA00219220FDF7C5FA032121
:102EA0009320FDF7C1FA59469520FDF7BDFA40F28F
:102EB00073110720FDF7B8FA322011E10021072035
:102EC000FDF7B2FA322002F037FD4FF48E71122076
:102ED000FDF7AAFA0121A420FDF7A6FA0F21082088
:102EE000FDF7A2FA082100E07CE30A20FDF79CFA36
:102EF00008210D20FDF798FA39463020FDF794FAA5
:102F000007213120FDF790FA40F203613220FDF7EE
:102F10008BFA4C4649463320FDF786FA5146342059
:102F2000FDF782FA02213520FDF77EFA41F60F7196
:102F30003620FDF779FA39463720FDF775FA00217A
:102F40003820FDF771FA00213920FDF76DFA394676
:102F50003A20FDF769FA00213B20FDF765FA0721C9
:102F60003C20FDF761FA00213D20FDF75DFA32209B
:102F700002F0E2FC01210720FDF756FA012117209B
:102F8000FDF752FA322002F0D7FC4FF4BD51102069
:102F9000FDF74AFA40F217211120FDF745FA4FF4E8
:102FA0008F711220FDF740FA4FF470611320FDF786
:102FB0003BFA00212A20FDF737FA0A212920FDF7E4
:102FC00033FA4FF49F711220FDF72EFA00215020A2
:102FD000FDF72AFAEF215120FDF726FA00215220B1
:102FE000FDF722FA40F23F115320FDF71DFA4FF48E
:102FF0001C516020FDF718FA01216120FDF714FA39
:1030000000216A20FDF710FA0021802001E06AE02B
:1030100068E1FDF709FA00218120FDF705FA00219A
:103020008220FDF701FA00218320FDF7FDF9002140
:103030008420FDF7F9F900218520FDF7F5F913212A
:103040009020FDF7F1F902E016E2CCE273E3594675
:103050009220FDF7E9F905219320FDF7E5F900211C
:103060009520FDF7E1F900219720FDF7DDF900211A
:103070009820FDF7D9F931460120FDF7D5F9214611
:103080000220FDF7D1F941F238010320FDF7CCF918
:1030900000210420FDF7C8F900210C20FDF7C4F938
:1030A00000210F20FDF7C0F900212020FDF7BCF919
:1030B00000212120FDF7B8F921210720FDF7B4F9FF
:1030C000142002F039FC61210720FDF7ADF914202E
:1030D00002F032FC40F273110720FDF7A5F914202D
:1030E00002F02AFCA1E300210846FDF79DF900212A
:1030F0000846FDF799F900210846FDF795F90021EA
:103100000846FDF791F90121A42000E0E5E0FDF774
:103110008BF9142002F010FC4FF41C54214660205F
:10312000FDF782F9554651460820FDF77DF94FF429
:1031300005713020FDF778F943F215713120FDF764
:1031400073F940F204613220FDF76EF940F6166122
:103150003320FDF769F942F211213420FDF764F9BB
:103160004FF4A8513520FDF75FF948F2075136209A
:10317000FDF75AF941F207413720FDF755F941F2C1
:1031800003413820FDF750F920213920FDF74CF993
:103190001A219020FDF748F900211020FDF744F98D
:1031A00007211120FDF740F900211220FDF73CF91D
:1031B00000211320FDF738F9142002F0BDFB4FF475
:1031C000E6611020FDF730F940F237111120FDF7CC
:1031D0002BF9142002F0B0FB4FF4DC711220FDF744
:1031E00023F9142002F0A8FB4FF470611320FDF7BF
:1031F0001BF980212A20FDF717F948212920FDF726
:1032000013F9142002F098FB31460120FDF70CF968
:1032100049460220FDF708F941F238010320FDF785
:1032200003F929460820FDF7FFF800210A20FDF7E1
:10323000FBF800210C20FDF7F7F800210D20FDF729
:10324000F3F830210E20FDF7EFF800215020FDF7B4
:10325000EBF8EF215120FDF7E7F800215220FDF7B0
:10326000E3F840F23F115320FDF7DEF821466020DD
:10327000FDF7DAF801216120FDF7D6F800216A2078
:10328000FDF7D2F811219020FDF7CEF84FF4C06180
:103290009220FDF7C9F840F202419320FDF7C4F8EF
:1032A00002219420FDF7C0F8142002F045FB012113
:1032B0000720FDF7B9F8142002F03EFB612107203A
:1032C000FDF7B2F840F273110720FDF7ADF80021C9
:1032D0002020FDF7A9F800212120FDF7A5F82221E3
:1032E00000207DE100210846FDF79EF800210846F8
:1032F000FDF79AF8142002F01FFB00210846FDF7A5
:1033000093F800210846FDF78FF800210846FDF7E5
:103310008BF800210846FDF787F80121A420FDF76E
:1033200083F8142002F008FB4FF41C516020FDF7D5
:103330007BF840F606010820FDF776F840F20373AB
:1033400019463020FDF770F801213120FDF76CF8A7
:1033500004213220FDF768F84FF481713320FDF726
:1033600063F85C4659463420FDF75EF840F20311DD
:103370003520FDF759F81F213620FDF755F819467D
:103380003720FDF751F801213820FDF74DF80421D1
:103390003920FDF749F815219020FDF745F84FF445
:1033A00082611020FDF740F840F247211120FDF71F
:1033B0003BF84FF4DE711220FDF736F84FF46061F0
:1033C0001320FDF731F8782002F0B6FA31460120DB
:1033D000FDF72AF84FF400710220FDF725F841F2BD
:1033E00030010320FDF720F808210A20FDF71CF822
:1033F00000210C20FDF718F820210E20FDF714F80D
:1034000000210F20FDF710F800212020FDF70CF817
:1034100000212120FDF708F83D212A20FDF704F8BE
:10342000142002F089FA2D212920FCF7FDFF00214C
:103430005020FCF7F9FF4DF2EF015120FCF7F4FFAB
:1034400000215220FCF7F0FF40F23F115320FCF71F
:10345000EBFF00216120FCF7E7FF00216A20FCF769
:10346000E3FF21469220FCF7DFFF05219320FCF7C4
:10347000DBFF3146FFF7ACBB01210020FCF7D4FF96
:103480000A2002F059FA41F228611020FCF7CCFF23
:103490000E211220FCF7C8FF40F639211320FCF75B
:1034A000C3FF0A2002F048FA40211120FCF7BCFFBC
:1034B00050211520FCF7B8FF0A2002F03DFA1E212A
:1034C0001220FCF7B1FF0A2002F036FA4FF4B15196
:1034D0001020FCF7A9FF42F639211320FCF7A4FFC6
:1034E0000A2002F029FA31460120FCF79DFF5946D7
:1034F0000220FCF799FF41F238010320FCF794FF0A
:1035000051460820FCF790FF08210A20FCF78CFFA9
:1035100000213020FCF788FF40F202413120FCF707
:1035200083FF4FF483713220FCF77EFF40F203519A
:103530003320FCF779FF4FF482713420FCF774FFDD
:1035400040F201313520FCF76FFF39463620FCF799
:103550006BFF40F205313720FCF766FF4FF4027134
:103560003820FCF761FF40F60B713920FCF75CFF57
:1035700002214120FCF758FF4FF41C51602000E06D
:10358000D4E0FCF751FF01216120FCF74DFF4FF41F
:1035900004719020FCF748FF4FF485719220FCF7EE
:1035A00043FF04219320FCF73FFF3146A020FCF7A6
:1035B0003BFF01210720FCF737FF21210720FCF703
:1035C00033FF23210720FCF72FFF33210720FCF7CF
:1035D0002BFF40F233110720FCF726FF0021A0202B
:1035E000FCF722FF21E130211520FCF71DFF1021FF
:1035F0009A20FCF719FF20211120FCF715FF43F258
:1036000028411020FCF710FF02211220FCF70CFFCC
:1036100041F238011320FCF707FF282002F08CF953
:1036200012210846FCF700FF282002F085F943F23A
:1036300020411020FCF7F8FE43F238011320FCF77C
:10364000F3FE462002F078F900213020FCF7ECFE72
:1036500040F202413120FCF7E7FE40F20731322010
:10366000FCF7E2FE4FF441713320FCF7DDFE04214C
:103670003420FCF7D9FE40F201413520FCF7D4FE9E
:1036800039463620FCF7D0FE40F205313720FCF7F2
:10369000CBFE4FF4C26319463820FCF7C5FE19462D
:1036A0003920FCF7C1FE31460120FCF7BDFE59462A
:1036B0000220FCF7B9FE41F230010320FCF7B4FE12
:1036C00040F608010820FCF7AFFE08210A20FCF7AD
:1036D000ABFE4FF41C516020FCF7A6FE01216120D7
:1036E000FCF7A2FE4FF49F719020FCF79DFE31463F
:1036F0009220FCF799FE31469320FCF795FE4FF49B
:103700004051A020FCF790FE1021A320FCF78CFE76
:1037100001210720FCF788FE21210720FCF784FE09
:1037200023210720FCF780FE33210720FCF77CFED5
:1037300040F233119EE6E22020801D2028800220E6
:10374000288004202880642002F0DFF8E020208018
:10375000012028800A2002F0EFF8E02020800320DA
:1037600028800C2002F0E8F8012020800A2002F0D6
:10377000E3F8E62020802F202880FF202880288062
:10378000B02020802020288000202880032028804E
:1037900040F21F3028800120288040F2DF1028806E
:1037A00000202880B42020800420288040F21F4080
:1037B0002880002028802E20288000202880288033
:1037C00028802880B6202080022028804FF40370B3
:1037D000288000202880172028801520288000209D
:1037E00028802880F0202080032028802920208025
:1037F000D020208000202880BE2020800520288026
:10380000FE20288001202880002028802880288011
:10381000B82020800320288001202880BA20208022
:10382000012028806420FDF714F80020FDF72AF815
:10383000D2490120C1F880014046FDF7BAF821B015
:10384000BDE8F08F2DE9F0478246A2EB0A00401C4C
:103850000E4685B2981B401C87B20024DFF82093E7
:10386000DDF8208015E0301981B25046FCF7F2FDFA
:10387000FCF7EAFD0020494607E000BF04FB050312
:1038800038F813200A80401C80B2A842F6D3641C8A
:10389000A4B2BC42E7D3BDE8F0872DE9FE4F161A6B
:1038A000CDE900104FF000085D1A47464FF0FF3099
:1038B000002E02DD4FF0010102E003D14FF00001C4
:1038C0008B4602E08346C6F10006002D02DD4FF074
:1038D000010002E003D14FF00000824602E0824680
:1038E000C5F10005AE4201DD344600E02C46601C07
:1038F0004FF00009029018E0009881B2019880B260
:10390000FCF713FFB0442F44A04504DD0198A8EB59
:10391000040858440190A74203DD00983F1B50441F
:10392000009009F101001FFA80F902998945E3DD51
:10393000BDE8FE8F2DE9FC4F80460025144603208C
:103940000F46A0EB440649E0381B81B208EB050A9C
:1039500001901FFA8AF0FCF7E8FE781B81B208EBB1
:10396000040900901FFA89F0FCF7DFFE07EB050B56
:103970001FFA8BF11FFA89F0FCF7D7FE07EB040959
:103980001FFA89F11FFA8AF0FCF7CFFEA8EB050AAF
:103990001FFA89F11FFA8AF0FCF7C7FEA8EB0409A9
:1039A0001FFA8BF11FFA89F0FCF7BFFE019881B274
:1039B0001FFA8AF0FCF7B9FE009881B21FFA89F06D
:1039C000FCF7B3FE6D1C002E03DA06EB8506B61D70
:1039D00004E0281B06EB8006641E0A36A542B3DD10
:1039E000BDE8FC8F2DE9FF4F1D460C468A4658075F
:1039F00000D0012000EBD50069084843203A00F0D0
:103A0000FF09D0B20026DFF87CB1029045E00C2D12
:103A100012D0102D15D0182D41D102985A4900EB23
:103A2000C00000BF01EB80004FF00008875D380642
:103A30000CD5564802880DE00298554900EB40002D
:103A4000F0E75449029801EB0010EDE70D9828B912
:103A50004E48428821460098FCF771FE7806070E12
:103A6000641CBBF80200A4B2A04218D9A4EB0A005F
:103A7000A84209D100985446401C80B20090BBF87F
:103A8000001081420BD906E008F1010000F0FF08A8
:103A9000B8F1080FCBD3761CF6B24E45B7D3BDE8CC
:103AA000FF8F0246012000E05043491EC9B2FBD2FD
:103AB00070472DE9FF4F81B00026DDF838A01D4684
:103AC000934681463446B0464FEA5A0727E0281B02
:103AD000401EC1B20A20FFF7E4FFBBFBF0F00A2151
:103AE000B0FBF1F201FB120026B9691E8C4201DA2B
:103AF00048B101263030C2B207FB049080B2534671
:103B0000CDF8008006E007FB049080B253462022E7
:103B1000CDF800800299FFF765FF641CE4B2AC4267
:103B2000D5D305B08CE62DE9F84F044600F0FF0927
:103B300010190D46DDE90AB61FFA80F8581987B248
:103B40004FF0000A12E0444503D305EB0B004C464E
:103B500085B2BD420FD25B4629462046CDF800A073
:103B6000FFF740FF04EB5B0084B2761C3278A2F1D1
:103B700020005E28E7D9BDE8F88F000000802142D0
:103B80000008006CA00A0020F4870208160000203C
:103B9000907D02080482020838B50121082002F055
:103BA000FCF8C020ADF8000010208DF803000320C1
:103BB000824C8DF802006946204602F049F8C02187
:103BC000204602F09DF838BD70B57C48016821F0B0
:103BD00070410160016841F040510160784C012062
:103BE000C4F89C01C4F89801042004F5CC7401F0D9
:103BF0008CFE00256560042001F087FE256070BD05
:103C00006E4810B5016821F070410160016841F013
:103C1000405101606A4C0020C4F89801C4F89C012E
:103C2000042004F5CC7401F070FE01202060606077
:103C3000BDE81040042001F068BE70B55F48002464
:103C4000016821F070410160016841F000410160AC
:103C50005B4D0126C5F89C61304601F056FEC5F863
:103C60009861012001F051FE07E0641CE4B2FA2CD7
:103C700003D9FFF7C5FF012070BDD5F81C0100284E
:103C8000F3D1C5F8980170BD70B54D4C0025C4F84E
:103C900098514A48016821F070410160016841F083
:103CA00040510160C4F89C51022004F5CC7401F02D
:103CB0002CFE01202060022001F027FE256070BD4F
:103CC00070B53F4C0025C4F898513C48016821F07C
:103CD00070410160016841F0405101600126C4F863
:103CE0009C61022004F5CC7401F00FFE26600220D6
:103CF00001F00BFE256070BD2DE9F04106462F480E
:103D0000016821F070410160016841F0405101609B
:103D10002B4C0027C4F898713D464FF0010830063F
:103D200002D5C4F89C8101E0C4F89C717006060EAF
:103D3000022001F0EAFDC4F89881022001F0E5FDBF
:103D4000C4F89871022001F0E0FD6D1CEDB2082D61
:103D5000E5D3BDE8F0812DE9F047814617480024FE
:103D6000016821F070410160016841F0004101608B
:103D7000134E254627464FF0010800BFC6F898713C
:103D8000022001F0C2FDC6F898816006040ED6F844
:103D90001C0108B1641CE4B2012001F0B6FD6D1CE9
:103DA000EDB2082DEAD3B9F1000F04D0FFF76CFF94
:103DB0002046BDE8F087FFF783FFF9E7000C0140DC
:103DC00000802142FFF7E8BE10B50446FFF7FCFE75
:103DD000200AA02101EB4000C0B2FFF78DFFFFF7E2
:103DE0002CFFE0B2FFF788FFFFF727FFFFF7ECFE9D
:103DF000A120FFF781FFFFF720FF0020FFF7ABFFB7
:103E00000446FFF7FDFE204610BD70B50D46044682
:103E1000FFF7DAFE200AA02101EB4000C0B2FFF755
:103E20006BFFFFF70AFFE0B2FFF766FFFFF705FF42
:103E30002846FFF761FFFFF700FFFFF7E1FEBDE84F
:103E400070400A2001F078BD70B514460D46064654
:103E500008E03046711C8EB2FFF7B6FF641E05F80D
:103E6000010BA4B2002CF4D170BD70B516460C46FF
:103E7000054606E021782846FFF7C7FF6D1CADB266
:103E8000641C761EB6B2F5D270BD00002DE9F04775
:103E90000024DFF80094054627464FF00108FE4E47
:103EA000280602D5C9F8A48101E0C9F8A471680602
:103EB000050EC6F88471012001F027FDC6F8848143
:103EC000641CE4B2082CEBD3BDE8F0872DE9F04781
:103ED0000027F14D3C463E46C5F88471DFF8B483B7
:103EE000C8F8A471C8F8AC7105F5C275FFF7CEFF2C
:103EF000062001F00AFD2E60012001F006FD4FF0C2
:103F00000109C5F80090484601F0FFFC2E60B2465A
:103F10004E464FF6FF79A5F5C27500BF09EA440485
:103F2000C5F884A1012001F0F0FCC5F88461D5F842
:103F3000080108B1641CA4B27F1CFFB2102FEDD39E
:103F40002009C8F8AC61BFE7FEB5064600256C46FF
:103F50003046FFF7BBFF24F815006D1CADB2052DF0
:103F6000F6D30020431C99B20CE000BF34F81020B7
:103F700034F81150AA4203D924F8105024F8112023
:103F8000491C89B20529F1D398B20428EAD300214B
:103F90005FF0010034F81020401C114480B289B257
:103FA0000428F7D30320B1FBF0F0FEBD2DE9F0416A
:103FB000BA4C06460D462078FFF7C6FF07466078E4
:103FC000FFF7C2FF378028800120BDE8F0817FB570
:103FD0000C460546694602A8FFF7E8FF00282FD0E7
:103FE00001A903A8FFF7E2FF002829D0BDF80C3093
:103FF000BDF80820934203D803F13200824205D372
:104000009A421FD802F1320083421BD2BDF804103D
:10401000BDF80000814203D801F13206B04204D35A
:1040200088420FD8323081420CD2D0184008288004
:10403000BDF80000BDF804100844400820800120AD
:1040400004B070BD0020FBE72DE9F0410446944820
:104050000D460B46028004F10D0082B2193880B281
:10406000FFF71BFC05F10D0083B2193881B222461F
:104070001046FFF712FC6E1C04F10108B1B21FFAE2
:1040800088F0FCF752FBB1B2661EB0B2FCF74DFBF4
:104090006F1EB9B21FFA88F0FCF747FBB9B2B0B295
:1040A000FCF743FB29462046BDE8F0410622FFF716
:1040B00041BC70B502467748D0F82801774C241DE2
:1040C00040B194F8200001063ED520F0800084F82D
:1040D000200040E07148001D00F116010C3012B1C3
:1040E000FFF775FF24E0FFF772FF08B3B4F92C0067
:1040F00023F0AAFA0546A08923F0AFFA616A23F0FB
:104100000EF9294623F0B3F823F0D2FAA081B4F9CE
:104110002E0023F099FA0546E08A23F09EFAA16A60
:1041200023F0FDF8294623F0A2F823F0C1FAE0823B
:1041300094F8200000060ED4C02084F82000A08946
:10414000A082E08AE08306E00020A082E0834FF6B0
:10415000FF70A081E08294F8200000F0800070BD24
:104160004E4910B50E2228312820FFF77EFE0A2185
:10417000BDE810403620FFF748BE10B53620FFF7E7
:1041800023FE0A2801D0002010BD44490E22283108
:104190002820FFF759FE41489022001D90F830304A
:1041A000001FD02113B10270417001E00170427014
:1041B000012010BD2DE9FF4F83B00E46DDE910A9A7
:1041C000374907464FF47840DDF85080088035A025
:1041D0001024CDE90040344D9346A0216B882A88F5
:1041E0002820FFF7A0FC31A0CDE900406B882A8889
:1041F000A0217820FFF797FC2DA0CDE900406B8827
:104200002A88B4212820FFF78EFC2AA0CDE900409F
:104210006B882A88B4217820FFF785FC26A0CDE999
:1042200000406B882A88C8212820FFF77CFC23A047
:10423000CDE900406B882A88C8217820FFF773FCFD
:104240001FA0CDE900406B882A88DC212820FFF7D9
:104250006AFC1CA0CDE900406B882A88DC2178200C
:10426000FFF761FC18A0CDE900406B882A88F02197
:104270002820FFF758FC04233A46A0214020009450
:10428000FFF717FC04233246A02190200094FFF78B
:1042900010FC1DE000802342008021421C00002011
:1042A0001600002078313A00A00A002079313A0047
:1042B00078323A0079323A0078333A0079333A006A
:1042C00078343A0079343A006661632069733A00C1
:1042D00004235A46B42140200094FFF7EAFB04234C
:1042E0000094B4219020069AFFF7E3FB0423524682
:1042F000C82140200094FFF7DCFB04234A46C82174
:1043000090200094FFF7D5FB04230094DC2140208B
:10431000129AFFF7CEFB04230094DC219020139A1D
:10432000FFF7C7FB03234246F02160200094FFF70C
:10433000C0FB07B0BDE8F08F2DE9F04F0024DFF897
:104340000CB48FB01F204FF6FF7825465E46ABF8C1
:1043500000004746FE48A0F800803846FCF729FBDD
:104360004FF47849A6F800903846FCF722FBF9484C
:104370000027378001684FF0100ACDE900A12821FD
:104380006423A0220846FFF7CEFB14214A460846C4
:10439000FFF75AFEF04E4FF0010986F82070776261
:1043A00071680120884796F82000B9EB901F45D12D
:1043B00020F0400086F8200009A8B18920F82410D8
:1043C00000EB8400641C0025F18AE4B24180012CDA
:1043D00006D0022C11D0032C1ED0042C2ED139E093
:1043E000142142460846FFF72FFEDC484FF478427E
:1043F0000088143880B214211EE0D84F42461421A0
:104400003888143880B2FFF71FFE78884FF478425E
:10441000143881B214200FE0D04F42467888143807
:1044200081B21420FFF710FE78884FF478421438D8
:1044300081B23888143880B2FFF706FE0A2001F0F6
:104440007BFA6D1CADB2B5F57A7FA9D9FFF795FE61
:104450000FB06FE7BDF82400BDF82810411A00D551
:104460004942BDF82600BDF82A20801A00D54042F6
:1044700049434043084423F0F5F823F063FC23F05C
:104480002BF984B2BDF82C00BDF83010401A00D5CD
:104490004042BDF82E10BDF83220891A00D549429D
:1044A000404301FB010023F0DDF823F04BFC23F037
:1044B00013F980B2039023F0D0F80746204623F08A
:1044C000CCF8394622F05DFF23F01FF907464FF084
:1044D0006632A34B019123F02BF97DD3A14AA24B65
:1044E0003846019923F03CF9F7D3002C74D0039897
:1044F0000028FBD0BDF82400BDF82C10401A00D5D0
:104500004042BDF82610BDF82E20891A00D5494238
:10451000404301FB010023F0A5F823F013FC23F036
:10452000DBF887B2BDF82800BDF83010401A00D57E
:104530004042BDF82A10BDF83220891A00D5494200
:10454000404301FB010023F08DF823F0FBFB23F037
:10455000C3F880B223F081F80446384623F07DF892
:10456000214622F00EFF23F0D0F807464FF06632C6
:104570007B4B019123F0DCF852D37A4A7A4B3846D0
:10458000019923F0EDF84BD3BDF82800BDF82C10AD
:10459000411A00D54942BDF82A00BDF82E20801AE4
:1045A00000D5404249434043084423F05BF823F0E0
:1045B000C9FB23F091F887B2BDF82400BDF8301094
:1045C000411A00D54942BDF82600BDF83220801AB4
:1045D00000D54042494300E047E04043084423F00F
:1045E00041F823F0AFFB23F077F880B223F035F8E1
:1045F0000446384623F031F8214622F0C2FE23F06B
:1046000084F807464FF06632554B019123F090F83D
:1046100006D3544A544B3846019923F0A1F856D298
:104620004E4800244246418800881439143889B223
:1046300080B2FFF709FD14214FF478420846FFF7D6
:1046400003FD0022494B3846019922F08BFF23F0ED
:1046500043F880B2BDF83210BDF83030BDF82E20DE
:10466000CDE90310CDE9012323E03C480024424674
:10467000418800881439143889B280B2FFF7E4FC0D
:1046800014214FF478420846FFF7DEFC0022374B36
:104690003846019922F066FF23F01EF882B2BDF879
:1046A0003030BDF83210BDF82E00CDE90103CDE960
:1046B0000312BDF82C000090BDF82A30BDF8282068
:1046C000BDF82610BDF82400FFF774FD68E6BDF8BC
:1046D0002800BDF824700290C01B22F0B5FF0446EC
:1046E0001E48008804900090283822F0ADFF214633
:1046F00022F047FE706203900298384422F0ADFF2A
:10470000039922F00CFE0446009822F0A6FF2146F1
:1047100022F0FFFD4FF0FF3122F071FE22F0AFFFDB
:10472000B085BDF82E00BDF826100746401A02914C
:1047300022F08AFF044609484088019006902838F4
:1047400022F082FF214622F01CFE11E0160000201C
:10475000180000205095020820000020A00A002028
:104760006666EE3FCDCCCCCCCCCCF03F00005940BF
:10477000B06202990446781822F06FFF214622F0B9
:10478000CEFD0746069822F068FF394622F0C1FDAB
:104790004FF0FF3122F033FE22F071FFF0850398D5
:1047A00022F06DFF002800DA4042022807DC204694
:1047B00022F065FF002800DA404202282EDD019831
:1047C0000024143881B20498694F143880B24246EC
:1047D000FFF73AFC14214FF478420846FFF734FC07
:1047E00064A1CDE900A17B883A881A212820FFF72F
:1047F0009AF996F8300048B15FF0000086F8300072
:1048000030B1614890210170D02105E00120F5E729
:104810005D48D021017090214170C1E51F20ABF8A7
:10482000000044464046FCF7C4F858A1CDE900A179
:104830004F4923204B880A886E21FFF774F94FF403
:104840007A7001F079F8FFF78BFC2046FCF7B1F89D
:10485000FEE5F8B5464D4C4CA888241DA0F5AA41AC
:10486000103954D0A0F5C851633963D00121882094
:1048700001F093FA0220ADF800001024494F8DF8A2
:10488000034003258DF802506946384601F0E0F9EF
:104890000221384601F034FA0420ADF80000482621
:1048A0008DF803606946384601F0D2F90421384694
:1048B00001F026FA4FF42067ADF800708DF8034040
:1048C0008DF80250384D6946284601F0C1F9394645
:1048D000284601F015FAA401ADF800408DF80360F8
:1048E0006946284601F0B4F92146284601F008FA45
:1048F00025491A31A1F10A00FFF758FBFFF762FAC8
:1049000010212A4801F0F5F9012822D026E000F014
:10491000DCFC68B100F0EEF92548606014F8300F57
:10492000A97940F0800001F001010843207013E0F4
:104930002048F2E700F03BFB1F48606094F830002D
:10494000A97940F0800001F00101084384F83000AB
:1049500002E0FFF712FC08B10020F8BD4FF6FF702F
:10496000FCF727F8FFF7E8FCFFF707FC0120F8BD8C
:10497000A00A00205450204E656564207265616471
:104980006A757374210000001C000020546F756369
:10499000682053637265656E2041646A7573742084
:1049A0004F4B2100000C0140001C01400018014049
:1049B000914D0008C75300087F50000838B5012109
:1049C000882001F0EAF90220ADF8000010208DF8EF
:1049D000030003208F4C8DF802006946204601F049
:1049E00037F90221204601F08BF98B4D6415ADF8A3
:1049F00000406946284601F02BF92146284601F07F
:104A00007FF938BD70B58448001D016821F0F001C0
:104A10000160016841F030010160804C0120C4F860
:104A2000A4017F4DC5F884011E2004F5D27405F55C
:104A3000C27500F06AFF00262660052000F065FFC1
:104A40002E6070BD70B57448001D016821F0F00142
:104A50000160016841F03001016071480125C0F832
:104A600084511E2000F051FF6C4C0020C4F8A401BA
:104A7000052004F5D27400F048FF256070BD70B5C4
:104A800065480024001D016821F0F0010160016803
:104A900041F080010160614E0120C6F8A401604D23
:104AA000C5F8840107E0641CE4B2FA2C03D9FFF7CF
:104AB000C9FF012070BD052000F027FFD6F82401B2
:104AC0000028F0D1C5F8840170BD70B5544C0025A4
:104AD000C4F884515048001D016821F0F0010160C4
:104AE000016841F030010160052004F5C27400F056
:104AF0000CFF4A48C0F8A451052000F006FF012031
:104B00002060052000F001FF256070BD70B5444CA9
:104B10000025C4F884514048001D016821F0F001CF
:104B20000160016841F030010160052004F5C274A4
:104B300000F0EBFE39480126C0F8A461052000F022
:104B4000E4FE2660052000F0E0FE256070BD2DE942
:104B5000F04706463048001D016821F0F001016071
:104B6000016841F0300101602D4D0027C5F88471C6
:104B7000052000F0CAFEDFF8A48000244FF00109F0
:104B8000F109C8F8A4117006060EC5F88491052035
:104B900000F0BBFEC5F88471052000F0B6FE641C71
:104BA000E4B2082CECD3BDE8F0872DE9F04782464B
:104BB00019480024001D016821F0F001016001681E
:104BC00041F0800101601E2000F09FFE0025144E80
:104BD000DFF848902F464FF0010800BFC6F88471F7
:104BE000052000F092FEC6F884816006040ED9F814
:104BF000240108B1641CE4B26D1CEDB2082DEDD3A4
:104C0000BAF1000F03D0FFF760FF2046CBE7FFF7B4
:104C10007DFFFAE7000C0140001C014000802342A8
:104C2000008021422DE9F04116460F46044600253A
:104C3000FFF7E8FEB220FFF78AFFFFF720FF200A08
:104C4000FFF785FFFFF71BFFE0B2FFF780FFFFF7DD
:104C500016FF002408E0385DFFF779FFFFF70FFF2C
:104C6000050003D1641CE4B2B442F4D3FFF7EAFEBA
:104C70002846BDE8F0812DE9F04115460E46044670
:104C8000FFF7C0FEB220FFF762FFFFF7F8FE200A31
:104C9000FFF75DFFFFF7F3FEE0B2FFF758FFFFF706
:104CA000EEFEFFF7AFFEB320FFF751FFFFF7E7FE81
:104CB00000246F1E09E0BC4201D0012000E000206A
:104CC000FFF773FF3055641CE4B2AC42F3D3BDE888
:104CD000F041FFF7B7BE08B500218DF8001010B104
:104CE00080208DF80000012269464FF45060FFF7E4
:104CF00099FF08BD7CB500248DF804400121802077
:104D000001F04BF84FF40060ADF8000010208DF872
:104D100003000320714E8DF802006946304600F012
:104D200097FF0221304600F0EBFF3515ADF800503B
:104D300048208DF803006946304600F089FF294677
:104D4000304600F0DDFFFFF739FE654DC5F8AC4198
:104D5000642005F5D67500F0EFFD01202860642081
:104D600000F0EAFD0120FFF7B6FF012201A94FF490
:104D70005060FFF780FF9DF804105AA022F05CFEFF
:104D80009DF80400802801D001207CBD00207CBD5E
:104D90002DE9F14F564E00244FF00A09307882B0C9
:104DA000401CC0B2B0FBF9F209FB1201DFF84481EC
:104DB0002746307009B10A2873D2012202A90020C7
:104DC000FFF759FF9DF80800C1066ED000F01F00E4
:104DD00040F0C000DFF820B1454688F820000127E8
:104DE00095F8200007FA04F108424DD04348042208
:104DF000694630F81400FFF73EFF95F830009DF843
:104E00000210C0079DF8030000EB012020D022F023
:104E100029FC5A463A4B22F0A5FB22F05DFC05EB3B
:104E2000440AAAF816009DF801009DF8001000EB56
:104E3000012022F017FC334A334B22F093FB00226F
:104E4000324B22F08CFB22F047FCAAF80C001BE04E
:104E500022F008FC5A462A4B22F084FB22F03CFC4C
:104E600005EB440AAAF80C009DF801009DF800101B
:104E700000EB012022F0F6FB224A234B22F072FBCA
:104E800022F02AFCAAF81600641CE4B2052CA7D371
:104E90000127A989002019B9E98A09B98DF8080004
:104EA00030709DF80800C00610D198F82000010667
:104EB00002D520F0800007E04FF6FF71A8F80C1033
:104EC000A8F8161000F0E00088F820003078F028EC
:104ED00001D986F800903846BDE8FE8F001C0140DD
:104EE000008023424354502049443A25780D0A005B
:104EF00054000020200000207B14AE475495020887
:104F0000E17AD43FD881734694F6D23F00008940BD
:104F10002DE9F04116460F4604460025FFF772FDC5
:104F20007020FFF714FEFFF7AAFDE0B2FFF70FFEB7
:104F3000FFF7A5FD002408E0385DFFF708FEFFF746
:104F40009EFD050003D1641CE4B2B442F4D3FFF724
:104F500079FD2846BDE8F0812DE9F04115460E4661
:104F60000446FFF74FFD7020FFF7F1FDFFF787FDC7
:104F7000E0B2FFF7ECFDFFF782FDFFF743FD712084
:104F8000FFF7E5FDFFF77BFD00246F1E09E0BC4243
:104F900001D0012000E00020FFF707FE3055641C1F
:104FA000E4B2AC42F3D3BDE8F041FFF74BBD7CB5B2
:104FB0000121802000F0F1FE4FF40060ADF8040004
:104FC00010208DF807000320794D8DF8060001A907
:104FD000284600F03DFE0221284600F091FE2C15E7
:104FE000ADF8044048208DF8070001A9284600F0DC
:104FF0002FFE2146284600F083FEFFF7DFFC6D4DB3
:105000000024C5F8AC41142005F5D67500F094FCD9
:1050100001202860322000F08FFC8DF80040012232
:1050200069460020FFF774FF01226946A420FFF7BC
:105030006FFF16208DF80000012269468020FFF7DF
:1050400067FF0C208DF80000012269468820FFF7D9
:105050005FFF02226946A120FFF77EFF9DF8000056
:10506000302803D19DF80100032801D001207CBD28
:1050700043F2030150A022F0DFFC00207CBD2DE9AB
:10508000F147504E00244FF00A0A307881B0401C9E
:10509000C0B2B0FBFAF20AFB1201DFF82C812746FE
:1050A000307009B10A2866D2012201A90220FFF757
:1050B00053FF9DF8040001075DD000F00F010629A1
:1050C00059D2FF208840C04340F0C000454688F8D0
:1050D000200001274FF0000995F8200007FA04F19D
:1050E00008423BD039480422694630F81400FFF7E3
:1050F00033FF95F830009DF80010C0079DF80100BF
:1051000001F00F010ED000EB012105EB4400C1823C
:105110009DF802209DF8031002F00F0201EB02211E
:1051200081810FE000EB0120C0F5F07105EB440038
:1051300081819DF802209DF8031002F00F0201EB1F
:105140000221C1829DF800000821B1EB101F05D09B
:1051500005EB4400A0F81690A0F80C90641CE4B293
:10516000052CB9D3A889012718B9E88A08B98DF8A0
:10517000049086F800909DF80400C00610D198F8BD
:105180002000010602D520F0800007E04FF6FF71F5
:10519000A8F80C10A8F8161000F0E00088F820001D
:1051A0003078F02801D986F800A03846BDE8FC87A1
:1051B000001C0140008023424354502049443A25BA
:1051C000780D0A0055000020200000205E9502089E
:1051D0002DE9F04116460F4604460025FFF712FC64
:1051E0002820FFF7B4FCFFF74AFC200AFFF7AFFCCA
:1051F000FFF745FCE0B2FFF7AAFCFFF740FC0024F4
:1052000008E0385DFFF7A3FCFFF739FC050003D188
:10521000641CE4B2B442F4D3FFF714FC2846BDE8A2
:10522000F08108B500218DF800108DF80100C1480B
:105230009DF80020435C491C1A44C9B28DF8002037
:10524000B829F5D3D0B2C043401C8DF80000B82275
:10525000B84948F24700FFF7BBFF0222694648F20F
:10526000FF00FFF7B5FF002008BD2DE9F04115460E
:105270000E460446FFF7C6FB2820FFF768FCFFF741
:10528000FEFB200AFFF763FCFFF7F9FBE0B2FFF734
:105290005EFCFFF7F4FBFFF7B5FB2920FFF757FC97
:1052A000FFF7EDFB00246F1E09E0BC4201D0012096
:1052B00000E00020FFF779FC3055641CE4B2AC42FA
:1052C000F3D3BDE8F041FFF7BDBBFEB5012180205F
:1052D00000F063FD4FF40060ADF8080010208DF879
:1052E0000B000320944F8DF80A0002A9384600F005
:1052F000AFFC0221384600F003FD3D15ADF8085023
:1053000048208DF80B0002A9384600F0A1FC294680
:10531000384600F0F5FCFFF751FB884E0024C6F834
:10532000AC410A2006F5D67600F006FB012030607D
:105330000A2000F001FBADF8085028208DF80B0082
:1053400002A9384600F084FC2946384600F0DAFC11
:10535000642000F0F1FA0422694648F24010FFF799
:1053600084FF8DF80440694675A022F065FB77A1A3
:10537000684621F058FF08B10120FEBD02208DF8DB
:10538000000048F24005012269462846FFF720FF49
:1053900001226946E81DFFF768FF9DF800106029AB
:1053A00005D26CA022F048FB0120FFF73AFF0A204B
:1053B00000F0C2FA8DF80040012269462846FFF746
:1053C00007FF0020FEBD2DE9F147674E00244FF096
:1053D0000A0A307885B0401CC0B2B0FBFAF20AFB72
:1053E0001201624DA046307009B10A2878D248F205
:1053F0004E19012205A94846FFF737FF9DF8140012
:105400004FF0000701060AD500F00F00062806D26B
:105410008DF80070012269464846FFF7D9FE9DF8D5
:10542000140001075CD000F00F01062958D2FF20BC
:1054300088408DF80000C04395F8209040F0C000EF
:1054400085F82000A889A882E88AE8834FF001083F
:1054500095F8201008FA04F0014226D035480422BD
:10546000B83002A930F81400FFF7FFFE95F83000BD
:105470009DF80910C0079DF8080000EB012105EB1D
:1054800044000AD0C1829DF80A109DF80B2001EB60
:105490000221C1F54871818107E081819DF80A10E0
:1054A0009DF80B2001EB0221C182641CE4B2052CA3
:1054B000CED32F49AA894FF001080B8828469A427B
:1054C00003D8C28A49888A4209D99DF8141001F08C
:1054D0000F0101290BD9C1898181018BE9823770C4
:1054E0009DF8140000F08F0080280AD018E0818A0F
:1054F0008181C18BC18280218DF8141085F82090A4
:10550000EEE795F82000010602D520F0800005E0C6
:105510004FF6FF71A981E98200F0E00085F82000D4
:105520003078F02801D986F800A006B04046BDE8E2
:10553000F087000068950208001C014000802342AB
:105540004354502049443A25730D0A003931343709
:105550000000000044656661756C74205665723AFF
:1055600025640D0A000000005600002020000020E5
:10557000A00A00207FB50C4605460121022000F05C
:1055800015FCADF80450ADF800400024754DADF8A1
:105590000640ADF802406946284600F0BFFC0122F3
:1055A0001146284600F0FDFC1D208DF80C008DF8FA
:1055B0000D4003208DF80E0001208DF80F0003A888
:1055C00000F093FA0121284600F0E1FC7FBD70B5A0
:1055D000644D10352888C00740D001200DF058FEDA
:1055E000614B6248197811B10121017002E0017824
:1055F0000029F1D041880022491C89B241805C4CCD
:105600001A706A296CD014DC2E2942D008DC0229D9
:1056100022D00A2923D0162929D022291ED12FE0F1
:105620003A2940D0462947D052294FD05E29F5D19A
:1056300051E0A62976D008DC76295ED0822961D097
:105640008E2964D09A29E9D167E0B22971D0BE29A8
:105650007AD0CA29E2D17EE01DF031FD7DE04278AA
:105660000821434800F014FAE27842A141E0427870
:105670003F480821083000F00BFAE27A43A138E0F5
:1056800042783B480821183000F002FAE27E45A13A
:105690002FE0427836480821203000F0F9F994F8DC
:1056A000232046A125E0427831480821103000F03F
:1056B000EFF9E27C47A11CE042782D480821283010
:1056C00000F0E6F994F82B2048A112E0427828482F
:1056D000082130303CE0427825480821383037E056
:1056E000427823480821403000F0D2F994F8432052
:1056F00044A1002021F087FC2FE042781C480821BB
:10570000483025E042781A480821503020E042789D
:105710001748082158301BE004E04278144808215B
:10572000603015E0427812480821683010E000E04F
:105730000AE042780E480821703000F0A9F937A13C
:10574000002021F060FC08E0427809480821783008
:1057500000F09EF901E0428002704FF6FE70288052
:1057600070BD0000000400404002002058000020EE
:10577000700700204368616E6E656C305F4672652D
:10578000715F53656E643D25640A00004368616E75
:105790006E656C305F506861735F53656E643D2564
:1057A000640A00004368616E6E656C315F46726525
:1057B000715F53656E643D25640A00004368616E45
:1057C0006E656C315F506861735F53656E643D2533
:1057D000640A00004368616E6E656C305F416D70F5
:1057E0006C5F53656E643D25640A00004368616E1A
:1057F0006E656C315F416D706C5F53656E643D2505
:10580000640A00004368616E6E656C5F6C696E656A
:10581000335F53656E643D25640A00000A00000092
:1058200010B598B0012140F2E11000F0B6FA012164
:10583000080200F0A9FA4FF63370ADF858001820AE
:105840008DF85B0003248DF85A4016A91F4800F01C
:10585000FFF94FF68370ADF8580016A91C4800F008
:10586000F7F94FF23F00ADF8580016A9194800F0BB
:10587000EFF940F23F40ADF8580016A9164800F085
:10588000E7F90020CDE910040F9014900421159041
:10589000CDE9001012901021CDE90201139004907F
:1058A0000690059009020790CDE908010A900B9037
:1058B0000C900FA80D900E90684600F055F901214C
:1058C000042000F0B5F918B010BD0000001401402C
:1058D00000180140001C01400020014010B56FF08D
:1058E000040000F031F9204820490068B0FBF1F0D5
:1058F000C1B21F4801EB41020170C2EBC1114FF66A
:10590000FF7202EAC101418010BD1949097848437C
:105910004FF0E021486100228A61086940F00100EF
:1059200008610869C30701D0C003FAD5086920F0EF
:10593000010008618A6170470D49498848434FF06A
:10594000E021486100228A61086940F00100086195
:105950000869C30701D0C003FAD5086920F0010027
:1059600008618A61704700000000002000127A0080
:105970005C0000204D490A885206FCD54B4AC1B252
:10598000121D1180704770B5054686B0012144F2A2
:10599000040000F002FA4FF40070ADF81000032488
:1059A0008DF812401820424E8DF8130004A930469D
:1059B00000F04EF93015ADF8100004208DF81300FA
:1059C00004A9304600F044F925208DF814008DF824
:1059D00015408DF8164001208DF8170005A800F03D
:1059E00084F80020ADF80400ADF80600ADF808001A
:1059F000ADF80C000C202D4CADF80A00009569465E
:105A0000204600F0E5F9012240F22551204600F041
:105A10003CFA0121204600F02EFA06B070BD70B5A8
:105A2000224C40F22551204600F056FA00280ED0B4
:105A3000204600F046FAC2B21E4801880B0406D484
:105A40004C044FF0000306D50A2A01D0038070BD34
:105A500041F400410DE00D2A09D0C1F30D04164DAB
:105A6000491C89B22A550180C729EFD870BD41F47D
:105A70008041018070BD10B50C4C0146204600F0FD
:105A80001CFA8021204600F020FA0028F9D010BD31
:105A900070B50D460646002404E0305DFFF7EBFFCD
:105AA000641CA4B2AC42F8D370BD000000380140C1
:105AB0000008014060000020AE0A00200648804730
:105AC00006480047FEE7FEE7FEE7FEE7FEE7FEE7E3
:105AD000FEE7FEE7FEE7FEE7750200083101000879
